{
  "contractName": "LinkswapFactory",
  "abi": [
    {
      "inputs": [
        {
          "internalType": "address",
          "name": "_governance",
          "type": "address"
        },
        {
          "internalType": "address",
          "name": "_treasury",
          "type": "address"
        },
        {
          "internalType": "address",
          "name": "_priceOracle",
          "type": "address"
        },
        {
          "internalType": "uint256",
          "name": "_linkListingFeeInUsd",
          "type": "uint256"
        },
        {
          "internalType": "uint256",
          "name": "_wethListingFeeInUsd",
          "type": "uint256"
        },
        {
          "internalType": "uint256",
          "name": "_yflListingFeeInUsd",
          "type": "uint256"
        },
        {
          "internalType": "uint256",
          "name": "_treasuryListingFeeShare",
          "type": "uint256"
        },
        {
          "internalType": "uint256",
          "name": "_minListingLockupAmountInUsd",
          "type": "uint256"
        },
        {
          "internalType": "uint256",
          "name": "_targetListingLockupAmountInUsd",
          "type": "uint256"
        },
        {
          "internalType": "uint256",
          "name": "_minListingLockupPeriod",
          "type": "uint256"
        },
        {
          "internalType": "uint256",
          "name": "_targetListingLockupPeriod",
          "type": "uint256"
        },
        {
          "internalType": "uint256",
          "name": "_lockupAmountListingFeeDiscountShare",
          "type": "uint256"
        },
        {
          "internalType": "address",
          "name": "_linkToken",
          "type": "address"
        },
        {
          "internalType": "address",
          "name": "_WETH",
          "type": "address"
        },
        {
          "internalType": "address",
          "name": "_yflToken",
          "type": "address"
        }
      ],
      "stateMutability": "nonpayable",
      "type": "constructor"
    },
    {
      "anonymous": false,
      "inputs": [
        {
          "indexed": true,
          "internalType": "address",
          "name": "token0",
          "type": "address"
        },
        {
          "indexed": true,
          "internalType": "address",
          "name": "token1",
          "type": "address"
        },
        {
          "indexed": false,
          "internalType": "address",
          "name": "pair",
          "type": "address"
        },
        {
          "indexed": false,
          "internalType": "uint256",
          "name": "pairNum",
          "type": "uint256"
        }
      ],
      "name": "PairCreated",
      "type": "event"
    },
    {
      "inputs": [],
      "name": "LINK",
      "outputs": [
        {
          "internalType": "address",
          "name": "",
          "type": "address"
        }
      ],
      "stateMutability": "view",
      "type": "function",
      "constant": true
    },
    {
      "inputs": [],
      "name": "WETH",
      "outputs": [
        {
          "internalType": "address",
          "name": "",
          "type": "address"
        }
      ],
      "stateMutability": "view",
      "type": "function",
      "constant": true
    },
    {
      "inputs": [],
      "name": "YFL",
      "outputs": [
        {
          "internalType": "address",
          "name": "",
          "type": "address"
        }
      ],
      "stateMutability": "view",
      "type": "function",
      "constant": true
    },
    {
      "inputs": [
        {
          "internalType": "uint256",
          "name": "",
          "type": "uint256"
        }
      ],
      "name": "allPairs",
      "outputs": [
        {
          "internalType": "address",
          "name": "",
          "type": "address"
        }
      ],
      "stateMutability": "view",
      "type": "function",
      "constant": true
    },
    {
      "inputs": [
        {
          "internalType": "address",
          "name": "",
          "type": "address"
        },
        {
          "internalType": "address",
          "name": "",
          "type": "address"
        }
      ],
      "name": "approvedPair",
      "outputs": [
        {
          "internalType": "bool",
          "name": "",
          "type": "bool"
        }
      ],
      "stateMutability": "view",
      "type": "function",
      "constant": true
    },
    {
      "inputs": [],
      "name": "defaultLinkTradingFeePercent",
      "outputs": [
        {
          "internalType": "uint256",
          "name": "",
          "type": "uint256"
        }
      ],
      "stateMutability": "view",
      "type": "function",
      "constant": true
    },
    {
      "inputs": [],
      "name": "defaultNonLinkTradingFeePercent",
      "outputs": [
        {
          "internalType": "uint256",
          "name": "",
          "type": "uint256"
        }
      ],
      "stateMutability": "view",
      "type": "function",
      "constant": true
    },
    {
      "inputs": [
        {
          "internalType": "address",
          "name": "",
          "type": "address"
        },
        {
          "internalType": "address",
          "name": "",
          "type": "address"
        }
      ],
      "name": "getPair",
      "outputs": [
        {
          "internalType": "address",
          "name": "",
          "type": "address"
        }
      ],
      "stateMutability": "view",
      "type": "function",
      "constant": true
    },
    {
      "inputs": [],
      "name": "governance",
      "outputs": [
        {
          "internalType": "address",
          "name": "",
          "type": "address"
        }
      ],
      "stateMutability": "view",
      "type": "function",
      "constant": true
    },
    {
      "inputs": [],
      "name": "linkListingFeeInUsd",
      "outputs": [
        {
          "internalType": "uint256",
          "name": "",
          "type": "uint256"
        }
      ],
      "stateMutability": "view",
      "type": "function",
      "constant": true
    },
    {
      "inputs": [],
      "name": "lockupAmountListingFeeDiscountShare",
      "outputs": [
        {
          "internalType": "uint256",
          "name": "",
          "type": "uint256"
        }
      ],
      "stateMutability": "view",
      "type": "function",
      "constant": true
    },
    {
      "inputs": [],
      "name": "maxSlippageBlocks",
      "outputs": [
        {
          "internalType": "uint256",
          "name": "",
          "type": "uint256"
        }
      ],
      "stateMutability": "view",
      "type": "function",
      "constant": true
    },
    {
      "inputs": [],
      "name": "maxSlippagePercent",
      "outputs": [
        {
          "internalType": "uint256",
          "name": "",
          "type": "uint256"
        }
      ],
      "stateMutability": "view",
      "type": "function",
      "constant": true
    },
    {
      "inputs": [],
      "name": "minListingLockupAmountInUsd",
      "outputs": [
        {
          "internalType": "uint256",
          "name": "",
          "type": "uint256"
        }
      ],
      "stateMutability": "view",
      "type": "function",
      "constant": true
    },
    {
      "inputs": [],
      "name": "minListingLockupPeriod",
      "outputs": [
        {
          "internalType": "uint256",
          "name": "",
          "type": "uint256"
        }
      ],
      "stateMutability": "view",
      "type": "function",
      "constant": true
    },
    {
      "inputs": [],
      "name": "priceOracle",
      "outputs": [
        {
          "internalType": "address",
          "name": "",
          "type": "address"
        }
      ],
      "stateMutability": "view",
      "type": "function",
      "constant": true
    },
    {
      "inputs": [],
      "name": "protocolFeeFractionInverse",
      "outputs": [
        {
          "internalType": "uint256",
          "name": "",
          "type": "uint256"
        }
      ],
      "stateMutability": "view",
      "type": "function",
      "constant": true
    },
    {
      "inputs": [],
      "name": "targetListingLockupAmountInUsd",
      "outputs": [
        {
          "internalType": "uint256",
          "name": "",
          "type": "uint256"
        }
      ],
      "stateMutability": "view",
      "type": "function",
      "constant": true
    },
    {
      "inputs": [],
      "name": "targetListingLockupPeriod",
      "outputs": [
        {
          "internalType": "uint256",
          "name": "",
          "type": "uint256"
        }
      ],
      "stateMutability": "view",
      "type": "function",
      "constant": true
    },
    {
      "inputs": [],
      "name": "treasury",
      "outputs": [
        {
          "internalType": "address",
          "name": "",
          "type": "address"
        }
      ],
      "stateMutability": "view",
      "type": "function",
      "constant": true
    },
    {
      "inputs": [],
      "name": "treasuryListingFeeShare",
      "outputs": [
        {
          "internalType": "uint256",
          "name": "",
          "type": "uint256"
        }
      ],
      "stateMutability": "view",
      "type": "function",
      "constant": true
    },
    {
      "inputs": [],
      "name": "treasuryProtocolFeeShare",
      "outputs": [
        {
          "internalType": "uint256",
          "name": "",
          "type": "uint256"
        }
      ],
      "stateMutability": "view",
      "type": "function",
      "constant": true
    },
    {
      "inputs": [],
      "name": "wethListingFeeInUsd",
      "outputs": [
        {
          "internalType": "uint256",
          "name": "",
          "type": "uint256"
        }
      ],
      "stateMutability": "view",
      "type": "function",
      "constant": true
    },
    {
      "inputs": [],
      "name": "yflListingFeeInUsd",
      "outputs": [
        {
          "internalType": "uint256",
          "name": "",
          "type": "uint256"
        }
      ],
      "stateMutability": "view",
      "type": "function",
      "constant": true
    },
    {
      "inputs": [],
      "name": "allPairsLength",
      "outputs": [
        {
          "internalType": "uint256",
          "name": "",
          "type": "uint256"
        }
      ],
      "stateMutability": "view",
      "type": "function",
      "constant": true
    },
    {
      "inputs": [
        {
          "internalType": "address",
          "name": "tokenA",
          "type": "address"
        },
        {
          "internalType": "address",
          "name": "tokenB",
          "type": "address"
        }
      ],
      "name": "approvePairViaGovernance",
      "outputs": [],
      "stateMutability": "nonpayable",
      "type": "function"
    },
    {
      "inputs": [
        {
          "internalType": "address",
          "name": "newToken",
          "type": "address"
        },
        {
          "internalType": "uint256",
          "name": "newTokenAmount",
          "type": "uint256"
        },
        {
          "internalType": "address",
          "name": "lockupToken",
          "type": "address"
        },
        {
          "internalType": "uint256",
          "name": "lockupTokenAmount",
          "type": "uint256"
        },
        {
          "internalType": "uint256",
          "name": "lockupPeriod",
          "type": "uint256"
        },
        {
          "internalType": "address",
          "name": "listingFeeToken",
          "type": "address"
        }
      ],
      "name": "createPair",
      "outputs": [
        {
          "internalType": "address",
          "name": "pair",
          "type": "address"
        }
      ],
      "stateMutability": "nonpayable",
      "type": "function"
    },
    {
      "inputs": [
        {
          "internalType": "address",
          "name": "_priceOracle",
          "type": "address"
        }
      ],
      "name": "setPriceOracle",
      "outputs": [],
      "stateMutability": "nonpayable",
      "type": "function"
    },
    {
      "inputs": [
        {
          "internalType": "address",
          "name": "_treasury",
          "type": "address"
        }
      ],
      "name": "setTreasury",
      "outputs": [],
      "stateMutability": "nonpayable",
      "type": "function"
    },
    {
      "inputs": [
        {
          "internalType": "address",
          "name": "_governance",
          "type": "address"
        }
      ],
      "name": "setGovernance",
      "outputs": [],
      "stateMutability": "nonpayable",
      "type": "function"
    },
    {
      "inputs": [
        {
          "internalType": "uint256",
          "name": "_treasuryProtocolFeeShare",
          "type": "uint256"
        }
      ],
      "name": "setTreasuryProtocolFeeShare",
      "outputs": [],
      "stateMutability": "nonpayable",
      "type": "function"
    },
    {
      "inputs": [
        {
          "internalType": "uint256",
          "name": "_protocolFeeFractionInverse",
          "type": "uint256"
        }
      ],
      "name": "setProtocolFeeFractionInverse",
      "outputs": [],
      "stateMutability": "nonpayable",
      "type": "function"
    },
    {
      "inputs": [
        {
          "internalType": "uint256",
          "name": "_linkListingFeeInUsd",
          "type": "uint256"
        }
      ],
      "name": "setLinkListingFeeInUsd",
      "outputs": [],
      "stateMutability": "nonpayable",
      "type": "function"
    },
    {
      "inputs": [
        {
          "internalType": "uint256",
          "name": "_wethListingFeeInUsd",
          "type": "uint256"
        }
      ],
      "name": "setWethListingFeeInUsd",
      "outputs": [],
      "stateMutability": "nonpayable",
      "type": "function"
    },
    {
      "inputs": [
        {
          "internalType": "uint256",
          "name": "_yflListingFeeInUsd",
          "type": "uint256"
        }
      ],
      "name": "setYflListingFeeInUsd",
      "outputs": [],
      "stateMutability": "nonpayable",
      "type": "function"
    },
    {
      "inputs": [
        {
          "internalType": "uint256",
          "name": "_treasuryListingFeeShare",
          "type": "uint256"
        }
      ],
      "name": "setTreasuryListingFeeShare",
      "outputs": [],
      "stateMutability": "nonpayable",
      "type": "function"
    },
    {
      "inputs": [
        {
          "internalType": "uint256",
          "name": "_minListingLockupAmountInUsd",
          "type": "uint256"
        }
      ],
      "name": "setMinListingLockupAmountInUsd",
      "outputs": [],
      "stateMutability": "nonpayable",
      "type": "function"
    },
    {
      "inputs": [
        {
          "internalType": "uint256",
          "name": "_targetListingLockupAmountInUsd",
          "type": "uint256"
        }
      ],
      "name": "setTargetListingLockupAmountInUsd",
      "outputs": [],
      "stateMutability": "nonpayable",
      "type": "function"
    },
    {
      "inputs": [
        {
          "internalType": "uint256",
          "name": "_minListingLockupPeriod",
          "type": "uint256"
        }
      ],
      "name": "setMinListingLockupPeriod",
      "outputs": [],
      "stateMutability": "nonpayable",
      "type": "function"
    },
    {
      "inputs": [
        {
          "internalType": "uint256",
          "name": "_targetListingLockupPeriod",
          "type": "uint256"
        }
      ],
      "name": "setTargetListingLockupPeriod",
      "outputs": [],
      "stateMutability": "nonpayable",
      "type": "function"
    },
    {
      "inputs": [
        {
          "internalType": "uint256",
          "name": "_lockupAmountListingFeeDiscountShare",
          "type": "uint256"
        }
      ],
      "name": "setLockupAmountListingFeeDiscountShare",
      "outputs": [],
      "stateMutability": "nonpayable",
      "type": "function"
    },
    {
      "inputs": [
        {
          "internalType": "uint256",
          "name": "_defaultLinkTradingFeePercent",
          "type": "uint256"
        }
      ],
      "name": "setDefaultLinkTradingFeePercent",
      "outputs": [],
      "stateMutability": "nonpayable",
      "type": "function"
    },
    {
      "inputs": [
        {
          "internalType": "uint256",
          "name": "_defaultNonLinkTradingFeePercent",
          "type": "uint256"
        }
      ],
      "name": "setDefaultNonLinkTradingFeePercent",
      "outputs": [],
      "stateMutability": "nonpayable",
      "type": "function"
    },
    {
      "inputs": [
        {
          "internalType": "uint256",
          "name": "_maxSlippagePercent",
          "type": "uint256"
        }
      ],
      "name": "setMaxSlippagePercent",
      "outputs": [],
      "stateMutability": "nonpayable",
      "type": "function"
    },
    {
      "inputs": [
        {
          "internalType": "uint256",
          "name": "_maxSlippageBlocks",
          "type": "uint256"
        }
      ],
      "name": "setMaxSlippageBlocks",
      "outputs": [],
      "stateMutability": "nonpayable",
      "type": "function"
    }
  ],
  "bytecode": "0x60e0604052620f42406007556109c4600d55610bb8600e55620f4240600f5560016012553480156200003057600080fd5b5060405162004bd138038062004bd183398181016040526101e08110156200005757600080fd5b8101908080519060200190929190805190602001909291908051906020019092919080519060200190929190805190602001909291908051906020019092919080519060200190929190805190602001909291908051906020019092919080519060200190929190805190602001909291908051906020019092919080519060200190929190805190602001909291908051906020019092919050505060016000819055508e600160006101000a8154816001600160a01b0302191690836001600160a01b031602179055508d600260006101000a8154816001600160a01b0302191690836001600160a01b031602179055508c600360006101000a8154816001600160a01b0302191690836001600160a01b031602179055508b6004819055508a60058190555089600681905550886007819055506200019e876200021460201b60201c565b620001b2886001600160e01b036200022916565b620001c6856001600160e01b036200025516565b620001da866001600160e01b036200026a16565b600c939093556001600160601b0319606092831b811660805290821b811660a05291901b1660c052506200027f9950505050505050505050565b6008548110156200022457600080fd5b600955565b6009548111156200023957600080fd5b801562000250576103e88110156200025057600080fd5b600855565b600a548110156200026557600080fd5b600b55565b600b548111156200027a57600080fd5b600a55565b60805160601c60a05160601c60c05160601c6148db620002f660003980610a30528061109c52806112765280611332525080610aa05280610c5c528061106052806111c4528061121a5250806106b75280610c21528061102552806110dd528061113452806115ec528061162752506148db6000f3fe608060405234801561001057600080fd5b506004361061027f5760003560e01c806366bbb22e1161015c578063b6517727116100ce578063eb80d6d811610087578063eb80d6d8146105e9578063f09ce1cd14610631578063f0f4426014610639578063f2be0b0f1461065f578063f481e71b1461067c578063f55f921c146106845761027f565b8063b651772714610569578063bdc8865114610586578063c732aeff1461058e578063e112fb9714610596578063e6a439051461059e578063e9dba772146105cc5761027f565b80637c520255116101205780637c520255146104f1578063806e2f601461050e5780638814d38414610516578063a4803b3314610533578063ab033ea91461053b578063ad5c4648146105615761027f565b806366bbb22e1461043b57806368cf0e6b146104585780636c271d6d146104755780636f9107d814610492578063773d877a146104af5761027f565b806335eb9e40116101f5578063574f2ba3116101b9578063574f2ba3146103e15780635798a8bd146103e957806358f3ff1a146104065780635aa6e675146104235780635c8169571461042b57806361d027b3146104335761027f565b806335eb9e40146103865780634789b4c61461038e578063530e784f146103ab57806353e10b10146103d157806355aad536146103d95761027f565b8063205ec62e11610247578063205ec62e1461030657806324b07fbb146103235780632630c12f146103405780632a32f5d01461034857806330895627146103765780633314dd691461037e5761027f565b8063087f5602146102845780631a75a86a1461029e5780631b6b6d23146102bd5780631e3dd18b146102e15780631e421a61146102fe575b600080fd5b61028c61068c565b60408051918252519081900360200190f35b6102bb600480360360208110156102b457600080fd5b5035610692565b005b6102c56106b5565b604080516001600160a01b039092168252519081900360200190f35b6102c5600480360360208110156102f757600080fd5b50356106d9565b61028c610700565b6102bb6004803603602081101561031c57600080fd5b5035610706565b6102bb6004803603602081101561033957600080fd5b5035610726565b6102c5610752565b6102bb6004803603604081101561035e57600080fd5b506001600160a01b0381358116916020013516610761565b61028c610820565b61028c610826565b61028c61082c565b6102bb600480360360208110156103a457600080fd5b5035610832565b6102bb600480360360208110156103c157600080fd5b50356001600160a01b0316610852565b61028c61088b565b61028c610891565b61028c610897565b6102bb600480360360208110156103ff57600080fd5b503561089d565b6102bb6004803603602081101561041c57600080fd5b50356108b9565b6102c56108e5565b61028c6108f4565b6102c56108fa565b6102bb6004803603602081101561045157600080fd5b5035610909565b6102bb6004803603602081101561046e57600080fd5b5035610929565b6102bb6004803603602081101561048b57600080fd5b5035610955565b6102bb600480360360208110156104a857600080fd5b5035610971565b6104dd600480360360408110156104c557600080fd5b506001600160a01b03813581169160200135166109a9565b604080519115158252519081900360200190f35b6102bb6004803603602081101561050757600080fd5b50356109c9565b61028c6109fd565b6102bb6004803603602081101561052c57600080fd5b5035610a03565b6102c5610a2e565b6102bb6004803603602081101561055157600080fd5b50356001600160a01b0316610a52565b6102c5610a9e565b6102bb6004803603602081101561057f57600080fd5b5035610ac2565b61028c610aec565b61028c610af2565b61028c610af8565b6102c5600480360360408110156105b457600080fd5b506001600160a01b0381358116916020013516610afe565b6102bb600480360360208110156105e257600080fd5b5035610b24565b6102c5600480360360c08110156105ff57600080fd5b506001600160a01b038135811691602081013591604082013581169160608101359160808201359160a0013516610b40565b61028c610eb2565b6102bb6004803603602081101561064f57600080fd5b50356001600160a01b0316610eb8565b6102bb6004803603602081101561067557600080fd5b5035610ef1565b61028c610f1c565b61028c610f22565b600e5481565b6001546001600160a01b031633146106a957600080fd5b6106b281610f28565b50565b7f000000000000000000000000000000000000000000000000000000000000000081565b601581815481106106e657fe5b6000918252602090912001546001600160a01b0316905081565b600a5481565b6001546001600160a01b0316331461071d57600080fd5b6106b281610f3c565b6001546001600160a01b0316331461073d57600080fd5b620f424081111561074d57600080fd5b600755565b6003546001600160a01b031681565b6001546001600160a01b0316331461077857600080fd5b600260005414156107d0576040805162461bcd60e51b815260206004820152601f60248201527f5265656e7472616e637947756172643a207265656e7472616e742063616c6c00604482015290519081900360640190fd5b60026000908155806107e28484610f65565b6001600160a01b039182166000908152601460209081526040808320949093168252929092528120805460ff19166001908117909155905550505050565b60065481565b60125481565b600d5481565b6001546001600160a01b0316331461084957600080fd5b6106b281610ffb565b6001546001600160a01b0316331461086957600080fd5b600380546001600160a01b0319166001600160a01b0392909216919091179055565b60085481565b600f5481565b60155490565b6001546001600160a01b031633146108b457600080fd5b600455565b6001546001600160a01b031633146108d057600080fd5b620f42408111156108e057600080fd5b600f55565b6001546001600160a01b031681565b600b5481565b6002546001600160a01b031681565b6001546001600160a01b0316331461092057600080fd5b6106b28161100f565b6001546001600160a01b0316331461094057600080fd5b620f424081111561095057600080fd5b600c55565b6001546001600160a01b0316331461096c57600080fd5b600555565b6001546001600160a01b0316331461098857600080fd5b6001811015801561099b5750619d808111155b6109a457600080fd5b601255565b601460209081526000928352604080842090915290825290205460ff1681565b6001546001600160a01b031633146109e057600080fd5b6107d0811015806109ef575080155b6109f857600080fd5b601055565b60055481565b6001546001600160a01b03163314610a1a57600080fd5b612710811115610a2957600080fd5b600d55565b7f000000000000000000000000000000000000000000000000000000000000000081565b6001546001600160a01b03163314610a6957600080fd5b6001600160a01b038116610a7c57600080fd5b600180546001600160a01b0319166001600160a01b0392909216919091179055565b7f000000000000000000000000000000000000000000000000000000000000000081565b6001546001600160a01b03163314610ad957600080fd5b6064811115610ae757600080fd5b601155565b60105481565b60045481565b60075481565b60136020908152600092835260408084209091529082529020546001600160a01b031681565b6001546001600160a01b03163314610b3b57600080fd5b600655565b600060026000541415610b9a576040805162461bcd60e51b815260206004820152601f60248201527f5265656e7472616e637947756172643a207265656e7472616e742063616c6c00604482015290519081900360640190fd5b60026000556001546001600160a01b0316331415610bb757600080fd5b6001600160a01b03871615801590610bd757506001600160a01b03851615155b610be057600080fd5b600080610bed8988610f65565b6001600160a01b03808316600090815260146020908152604080832093851683529290522054919350915060ff16610d4b577f00000000000000000000000000000000000000000000000000000000000000006001600160a01b0316876001600160a01b03161480610c9057507f00000000000000000000000000000000000000000000000000000000000000006001600160a01b0316876001600160a01b0316145b610c9957600080fd5b600a54851015610ca857600080fd5b6003546040805163750c450d60e01b81526001600160a01b038a81166004830152602482018a90529151600093929092169163750c450d91604480820192602092909190829003018186803b158015610d0057600080fd5b505afa158015610d14573d6000803e3d6000fd5b505050506040513d6020811015610d2a57600080fd5b5051600854909150811015610d3e57600080fd5b610d49858288611023565b505b610d558282611544565b6001600160a01b0380841660009081526014602090815260408083209386168352929052205490935060ff16158015610d8e5750600086115b8015610d9a5750600085115b15610ea157610dab8933858b6117b9565b610db7873385896117b9565b604080516335313c2160e11b815233600482015290516000916001600160a01b03861691636a6278429160248082019260209290919082900301818787803b158015610e0257600080fd5b505af1158015610e16573d6000803e3d6000fd5b505050506040513d6020811015610e2c57600080fd5b50516040805163738a1aa960e11b8152336004820152602481018990526044810183905290519192506001600160a01b0386169163e71435529160648082019260009290919082900301818387803b158015610e8757600080fd5b505af1158015610e9b573d6000803e3d6000fd5b50505050505b505060016000559695505050505050565b600c5481565b6001546001600160a01b03163314610ecf57600080fd5b600280546001600160a01b0319166001600160a01b0392909216919091179055565b6001546001600160a01b03163314610f0857600080fd5b612710811115610f1757600080fd5b600e55565b60115481565b60095481565b600854811015610f3757600080fd5b600955565b600954811115610f4b57600080fd5b8015610f60576103e8811015610f6057600080fd5b600855565b600080826001600160a01b0316846001600160a01b03161415610f8757600080fd5b826001600160a01b0316846001600160a01b031610610fa7578284610faa565b83835b90925090506001600160a01b038216610fc257600080fd5b6001600160a01b03828116600090815260136020908152604080832085851684529091529020541615610ff457600080fd5b9250929050565b600b5481111561100a57600080fd5b600a55565b600a5481101561101e57600080fd5b600b55565b7f00000000000000000000000000000000000000000000000000000000000000006001600160a01b0316836001600160a01b0316148061109457507f00000000000000000000000000000000000000000000000000000000000000006001600160a01b0316836001600160a01b0316145b806110d057507f00000000000000000000000000000000000000000000000000000000000000006001600160a01b0316836001600160a01b0316145b6110d957600080fd5b60007f00000000000000000000000000000000000000000000000000000000000000006001600160a01b0316846001600160a01b031614156111c2576003546004805460408051630f2008f560e31b81526001600160a01b037f0000000000000000000000000000000000000000000000000000000000000000811694820194909452602481019290925251919092169163790047a8916044808301926020929190829003018186803b15801561118f57600080fd5b505afa1580156111a3573d6000803e3d6000fd5b505050506040513d60208110156111b957600080fd5b505190506113bd565b7f00000000000000000000000000000000000000000000000000000000000000006001600160a01b0316846001600160a01b031614156112745760035460055460408051630f2008f560e31b81526001600160a01b037f00000000000000000000000000000000000000000000000000000000000000008116600483015260248201939093529051919092169163790047a8916044808301926020929190829003018186803b15801561118f57600080fd5b7f00000000000000000000000000000000000000000000000000000000000000006001600160a01b0316846001600160a01b031614156113bd57600360009054906101000a90046001600160a01b03166001600160a01b031663a2e620456040518163ffffffff1660e01b8152600401600060405180830381600087803b1580156112fe57600080fd5b505af1158015611312573d6000803e3d6000fd5b505060035460065460408051630f2008f560e31b81526001600160a01b037f0000000000000000000000000000000000000000000000000000000000000000811660048301526024820193909352905191909216935063790047a892506044808301926020929190829003018186803b15801561138e57600080fd5b505afa1580156113a2573d6000803e3d6000fd5b505050506040513d60208110156113b857600080fd5b505190505b60006008546009541115611412576008546009546113e09163ffffffff61190e16565b6114076113f86008548761190e90919063ffffffff16565b600c549063ffffffff61196416565b8161140e57fe5b0490505b600a54600b54111561148c57611489611438600a54600b5461190e90919063ffffffff16565b611473611450600a548761190e90919063ffffffff16565b600c5461146790620f42409063ffffffff61190e16565b9063ffffffff61196416565b8161147a57fe5b8391900463ffffffff6119c716565b90505b6000620f42406114b26114a5828563ffffffff61190e16565b859063ffffffff61196416565b816114b957fe5b0490506114fd8633600260009054906101000a90046001600160a01b0316620f42406114f06007548761196490919063ffffffff16565b816114f757fe5b046117b9565b60015460075461153c91889133916001600160a01b031690620f4240906114f09061152f90839063ffffffff61190e16565b879063ffffffff61196416565b505050505050565b600060606040518060200161155890611a16565b6020820181038252601f19601f8201166040525090506000848460405160200180836001600160a01b03166001600160a01b031660601b8152601401826001600160a01b03166001600160a01b031660601b815260140192505050604051602081830303815290604052805190602001209050808251602084016000f592505050806001600160a01b0316631794bb3c84847f00000000000000000000000000000000000000000000000000000000000000006001600160a01b0316876001600160a01b0316148061165b57507f00000000000000000000000000000000000000000000000000000000000000006001600160a01b0316866001600160a01b0316145b61166757600e5461166b565b600d545b6040518463ffffffff1660e01b815260040180846001600160a01b03166001600160a01b03168152602001836001600160a01b03166001600160a01b031681526020018281526020019350505050600060405180830381600087803b1580156116d357600080fd5b505af11580156116e7573d6000803e3d6000fd5b505050506001600160a01b03838116600081815260136020818152604080842088871680865290835281852080549789166001600160a01b031998891681179091559383528185208686528352818520805488168517905560158054600181018255958190527f55f448fdea98c4d29eb340757ef0a66cd03dbb9538908a6a81d96026b71ec47590950180549097168417909655925483519283529082015281517f0d3648bd0f6ba80134a33ba9275ac585d9d315f0ad8355cddefde31afa28d0e9929181900390910190a392915050565b604080516001600160a01b0385811660248301528481166044830152606480830185905283518084039091018152608490920183526020820180516001600160e01b03166323b872dd60e01b17815292518251600094606094938a169392918291908083835b6020831061183e5780518252601f19909201916020918201910161181f565b6001836020036101000a0380198251168184511680821785525050505050509050019150506000604051808303816000865af19150503d80600081146118a0576040519150601f19603f3d011682016040523d82523d6000602084013e6118a5565b606091505b50915091508180156118d35750805115806118d357508080602001905160208110156118d057600080fd5b50515b61153c5760405162461bcd60e51b81526004018080602001828103825260248152602001806148826024913960400191505060405180910390fd5b8082038281111561195e576040805162461bcd60e51b815260206004820152601560248201527464732d6d6174682d7375622d756e646572666c6f7760581b604482015290519081900360640190fd5b92915050565b600081158061197f5750508082028282828161197c57fe5b04145b61195e576040805162461bcd60e51b815260206004820152601460248201527364732d6d6174682d6d756c2d6f766572666c6f7760601b604482015290519081900360640190fd5b8082018281101561195e576040805162461bcd60e51b815260206004820152601460248201527364732d6d6174682d6164642d6f766572666c6f7760601b604482015290519081900360640190fd5b612e5e80611a248339019056fe608060405234801561001057600080fd5b506001600055600880546001600160a01b031916331790556040514690806052612e0c823960408051918290036052018220828201825260118352702634b735a9bbb0b8102628102a37b5b2b760791b6020938401528151808301835260018152603160f81b908401528151808401919091527f0ca3509544dff675980d1d1ad68e7359d3dc13a567d0450acb908d532d2b0549818301527fc89efdaa54c0f20c7adf612882df0950f5a951637e0307cdcb4c672f298b8bc6606082015260808101949094523060a0808601919091528151808603909101815260c09094019052825192019190912060045550612d008061010c6000396000f3fe608060405234801561001057600080fd5b50600436106102275760003560e01c80635f2dd7a711610130578063a9059cbb116100b8578063d505accf1161007c578063d505accf1461066e578063dd62ed3e146106bf578063e3956ed0146106ed578063e7143552146106f5578063fff6cae91461072757610227565b8063a9059cbb14610604578063ba9a7a5614610630578063bc25cf7714610638578063c45a01551461065e578063d21220a71461066657610227565b80637b1a201a116100ff5780637b1a201a146105695780637ecebe001461058f57806389afcb44146105b557806395d89b41146105f4578063a69df4b5146105fc57610227565b80635f2dd7a71461050d5780636a6278421461051557806370a082311461053b5780637464fc3d1461056157610227565b806318160ddd116101b3578063313ce56711610182578063313ce567146104b15780633644e515146104cf5780634d76a106146104d75780635909c0d5146104fd5780635a3d54931461050557610227565b806318160ddd1461046357806323b872dd1461046b5780632a324027146104a157806330adf81f146104a957610227565b8063095ea7b3116101fa578063095ea7b3146103895780630c615ee9146103c95780630dfe1681146103e65780631338736f1461040a5780631794bb3c1461042d57610227565b8063022c0d9f1461022c57806302e028f3146102ba57806306fdde03146102d45780630902f1ac14610351575b600080fd5b6102b86004803603608081101561024257600080fd5b8135916020810135916001600160a01b03604083013516919081019060808101606082013564010000000081111561027957600080fd5b82018360208201111561028b57600080fd5b803590602001918460018302840111640100000000831117156102ad57600080fd5b50909250905061072f565b005b6102c2610faa565b60408051918252519081900360200190f35b6102dc610fb0565b6040805160208082528351818301528351919283929083019185019080838360005b838110156103165781810151838201526020016102fe565b50505050905090810190601f1680156103435780820380516001836020036101000a031916815260200191505b509250505060405180910390f35b610359610fdd565b604080516001600160701b03948516815292909316602083015263ffffffff168183015290519081900360600190f35b6103b56004803603604081101561039f57600080fd5b506001600160a01b038135169060200135611007565b604080519115158252519081900360200190f35b6102b8600480360360208110156103df57600080fd5b503561101e565b6103ee6110f2565b604080516001600160a01b039092168252519081900360200190f35b6102b86004803603604081101561042057600080fd5b5080359060200135611101565b6102b86004803603606081101561044357600080fd5b506001600160a01b03813581169160208101359091169060400135611110565b6102c2611196565b6103b56004803603606081101561048157600080fd5b506001600160a01b0381358116916020810135909116906040013561119c565b6102c2611236565b6102c261123c565b6104b9611260565b6040805160ff9092168252519081900360200190f35b6102c2611265565b6102c2600480360360208110156104ed57600080fd5b50356001600160a01b031661126b565b6102c261127d565b6102c2611283565b6102c2611289565b6102c26004803603602081101561052b57600080fd5b50356001600160a01b031661128f565b6102c26004803603602081101561055157600080fd5b50356001600160a01b031661158a565b6102c261159c565b6102c26004803603602081101561057f57600080fd5b50356001600160a01b03166115a2565b6102c2600480360360208110156105a557600080fd5b50356001600160a01b03166115b4565b6105db600480360360208110156105cb57600080fd5b50356001600160a01b03166115c6565b6040805192835260208301919091528051918290030190f35b6102dc611967565b6102b8611987565b6103b56004803603604081101561061a57600080fd5b506001600160a01b038135169060200135611a60565b6102c2611a6d565b6102b86004803603602081101561064e57600080fd5b50356001600160a01b0316611a73565b6103ee611bd9565b6103ee611be8565b6102b8600480360360e081101561068457600080fd5b506001600160a01b03813581169160208101359091169060408101359060608101359060ff6080820135169060a08101359060c00135611bf7565b6102c2600480360360408110156106d557600080fd5b506001600160a01b0381358116916020013516611df4565b6102c2611e11565b6102b86004803603606081101561070b57600080fd5b506001600160a01b038135169060208101359060400135611e17565b6102b8611e78565b60026000541415610775576040805162461bcd60e51b815260206004820152601f6024820152600080516020612c67833981519152604482015290519081900360640190fd5b6002600055841515806107885750600084115b6107d9576040805162461bcd60e51b815260206004820181905260248201527f506169723a20494e53554646494349454e545f4f55545055545f414d4f554e54604482015290519081900360640190fd5b6000806107e4610fdd565b5091509150816001600160701b0316871080156108095750806001600160701b031686105b61085a576040805162461bcd60e51b815260206004820152601c60248201527f506169723a20494e53554646494349454e545f4c495155494449545900000000604482015290519081900360640190fd5b600954600a5460009182916001600160a01b039182169190811690891682148015906108985750806001600160a01b0316896001600160a01b031614155b6108dc576040805162461bcd60e51b815260206004820152601060248201526f506169723a20494e56414c49445f544f60801b604482015290519081900360640190fd5b8a156108ed576108ed828a8d611fd5565b89156108fe576108fe818a8c611fd5565b86156109b957886001600160a01b0316631bd7dbe7338d8d8c8c6040518663ffffffff1660e01b815260040180866001600160a01b03166001600160a01b03168152602001858152602001848152602001806020018281038252848482818152602001925080828437600081840152601f19601f8201169050808301925050509650505050505050600060405180830381600087803b1580156109a057600080fd5b505af11580156109b4573d6000803e3d6000fd5b505050505b604080516370a0823160e01b815230600482015290516001600160a01b038416916370a08231916024808301926020929190829003018186803b1580156109ff57600080fd5b505afa158015610a13573d6000803e3d6000fd5b505050506040513d6020811015610a2957600080fd5b5051604080516370a0823160e01b815230600482015290519195506001600160a01b038316916370a0823191602480820192602092909190829003018186803b158015610a7557600080fd5b505afa158015610a89573d6000803e3d6000fd5b505050506040513d6020811015610a9f57600080fd5b50516008546040805163f481e71b60e01b815290519295506000926001600160a01b039092169163f481e71b91600480820192602092909190829003018186803b158015610aec57600080fd5b505afa158015610b00573d6000803e3d6000fd5b505050506040513d6020811015610b1657600080fd5b50511115610da757600083610b3986670de0b6b3a764000063ffffffff61216716565b81610b4057fe5b04905060115460001415610b5c57601181905543601055610da3565b600043610beb600860009054906101000a90046001600160a01b03166001600160a01b0316633314dd696040518163ffffffff1660e01b815260040160206040518083038186803b158015610bb057600080fd5b505afa158015610bc4573d6000803e3d6000fd5b505050506040513d6020811015610bda57600080fd5b50516010549063ffffffff6121ca16565b109050600081610bfd57601154610c01565b6012545b90506064610ca0610c93600860009054906101000a90046001600160a01b03166001600160a01b031663f481e71b6040518163ffffffff1660e01b815260040160206040518083038186803b158015610c5957600080fd5b505afa158015610c6d573d6000803e3d6000fd5b505050506040513d6020811015610c8357600080fd5b505160649063ffffffff61221916565b839063ffffffff61216716565b81610ca757fe5b048310158015610d4e57506064610d42610c93600860009054906101000a90046001600160a01b03166001600160a01b031663f481e71b6040518163ffffffff1660e01b815260040160206040518083038186803b158015610d0857600080fd5b505afa158015610d1c573d6000803e3d6000fd5b505050506040513d6020811015610d3257600080fd5b505160649063ffffffff6121ca16565b81610d4957fe5b048311155b610d90576040805162461bcd60e51b815260206004820152600e60248201526d506169723a20536c69704c6f636b60901b604482015290519081900360640190fd5b8115610da0576011839055436010555b50505b6012555b5050600089856001600160701b0316038311610dc4576000610dd3565b89856001600160701b03160383035b9050600089856001600160701b0316038311610df0576000610dff565b89856001600160701b03160383035b90506000821180610e105750600081115b610e61576040805162461bcd60e51b815260206004820152601f60248201527f506169723a20494e53554646494349454e545f494e5055545f414d4f554e5400604482015290519081900360640190fd5b6000610e9a610e7b600f548561216790919063ffffffff16565b610e8e87620f424063ffffffff61216716565b9063ffffffff61221916565b90506000610eb6610e7b600f548561216790919063ffffffff16565b9050610ee964e8d4a51000610edd6001600160701b038b8116908b1663ffffffff61216716565b9063ffffffff61216716565b610ef9838363ffffffff61216716565b1015610f36576040805162461bcd60e51b8152602060048201526007602482015266506169723a204b60c81b604482015290519081900360640190fd5b5050610f4484848888612269565b60408051838152602081018390528082018d9052606081018c905290516001600160a01b038b169133917fd78ad95fa46c994b6551d0da85fc275fe613ce37657fb8d5e3d130840159d8229181900360800190a350506001600055505050505050505050565b60115481565b604051806040016040528060118152602001702634b735a9bbb0b8102628102a37b5b2b760791b81525081565b600b546001600160701b0380821692600160701b830490911691600160e01b900463ffffffff1690565b6000611014338484612429565b5060015b92915050565b600860009054906101000a90046001600160a01b03166001600160a01b0316635aa6e6756040518163ffffffff1660e01b815260040160206040518083038186803b15801561106c57600080fd5b505afa158015611080573d6000803e3d6000fd5b505050506040513d602081101561109657600080fd5b50516001600160a01b031633146110e6576040805162461bcd60e51b815260206004820152600f60248201526e2830b4b91d102327a92124a22222a760891b604482015290519081900360640190fd5b6110ef8161248b565b50565b6009546001600160a01b031681565b61110c3383836124d1565b5050565b6008546001600160a01b03163314611161576040805162461bcd60e51b815260206004820152600f60248201526e2830b4b91d102327a92124a22222a760891b604482015290519081900360640190fd5b600980546001600160a01b039485166001600160a01b031991821617909155600a805493909416921691909117909155600f55565b60015481565b6001600160a01b038316600090815260036020908152604080832033845290915281205460001914611221576001600160a01b03841660009081526003602090815260408083203384529091529020546111fc908363ffffffff61221916565b6001600160a01b03851660009081526003602090815260408083203384529091529020555b61122c8484846126b4565b5060019392505050565b600f5481565b7f6e71edae12b1b97f4d1f60370fef10105fa2faae0126114a169c64845d6126c981565b601281565b60045481565b60066020526000908152604090205481565b600c5481565b600d5481565b60105481565b6000600260005414156112d7576040805162461bcd60e51b815260206004820152601f6024820152600080516020612c67833981519152604482015290519081900360640190fd5b60026000908155806112e7610fdd565b50600954604080516370a0823160e01b815230600482015290519395509193506000926001600160a01b03909116916370a08231916024808301926020929190829003018186803b15801561133b57600080fd5b505afa15801561134f573d6000803e3d6000fd5b505050506040513d602081101561136557600080fd5b5051600a54604080516370a0823160e01b815230600482015290519293506000926001600160a01b03909216916370a0823191602480820192602092909190829003018186803b1580156113b857600080fd5b505afa1580156113cc573d6000803e3d6000fd5b505050506040513d60208110156113e257600080fd5b505190506000611401836001600160701b03871663ffffffff61221916565b9050600061141e836001600160701b03871663ffffffff61221916565b9050600061142c878761276e565b60015490915080611469576114556103e8610e8e611450878763ffffffff61216716565b612a6e565b985061146460006103e8612ac0565b6114b8565b6114b56001600160701b038916611486868463ffffffff61216716565b8161148d57fe5b046001600160701b0389166114a8868563ffffffff61216716565b816114af57fe5b04612b57565b98505b600089116114f75760405162461bcd60e51b8152600401808060200182810382526023815260200180612c446023913960400191505060405180910390fd5b6115018a8a612ac0565b61150d86868a8a612269565b811561153d57600b54611539906001600160701b0380821691600160701b90041663ffffffff61216716565b600e555b6040805185815260208101859052815133927f4c209b5fc8ad50758f13e2e1088ba56a560dff690a1c6fef26394f4c03821c4f928290030190a25050600160005550949695505050505050565b60026020526000908152604090205481565b600e5481565b60076020526000908152604090205481565b60056020526000908152604090205481565b6000806002600054141561160f576040805162461bcd60e51b815260206004820152601f6024820152600080516020612c67833981519152604482015290519081900360640190fd5b600260009081558061161f610fdd565b50600954600a54604080516370a0823160e01b815230600482015290519496509294506001600160a01b039182169391169160009184916370a08231916024808301926020929190829003018186803b15801561167b57600080fd5b505afa15801561168f573d6000803e3d6000fd5b505050506040513d60208110156116a557600080fd5b5051604080516370a0823160e01b815230600482015290519192506000916001600160a01b038516916370a08231916024808301926020929190829003018186803b1580156116f357600080fd5b505afa158015611707573d6000803e3d6000fd5b505050506040513d602081101561171d57600080fd5b50513060009081526002602052604081205491925061173c888861276e565b60015490915080611753848763ffffffff61216716565b8161175a57fe5b049a508061176e848663ffffffff61216716565b8161177557fe5b04995060008b118015611788575060008a115b6117c35760405162461bcd60e51b8152600401808060200182810382526023815260200180612c876023913960400191505060405180910390fd5b6117cd3084612b6f565b6117d8878d8d611fd5565b6117e3868d8c611fd5565b604080516370a0823160e01b815230600482015290516001600160a01b038916916370a08231916024808301926020929190829003018186803b15801561182957600080fd5b505afa15801561183d573d6000803e3d6000fd5b505050506040513d602081101561185357600080fd5b5051604080516370a0823160e01b815230600482015290519196506001600160a01b038816916370a0823191602480820192602092909190829003018186803b15801561189f57600080fd5b505afa1580156118b3573d6000803e3d6000fd5b505050506040513d60208110156118c957600080fd5b505193506118d985858b8b612269565b811561190957600b54611905906001600160701b0380821691600160701b90041663ffffffff61216716565b600e555b604080518c8152602081018c905281516001600160a01b038f169233927fdccd412f0b1252819cb1fd330b93224ca42612892bb3f4f789976e6d81936496929081900390910190a35050505050505050506001600081905550915091565b6040518060400160405280600481526020016304c534c560e41b81525081565b336000908152600660205260409020544210156119e1576040805162461bcd60e51b8152602060048201526013602482015272506169723a204245464f52455f45585049525960681b604482015290519081900360640190fd5b336000818152600760205260409020546119fc9130916126b4565b3360008181526007602090815260409182902054825190815291517f6381d9813cabeb57471b5a7e05078e64845ccdb563146a6911d536f24ce960f19281900390910190a23360009081526007602090815260408083208390556006909152812055565b60006110143384846126b4565b6103e881565b60026000541415611ab9576040805162461bcd60e51b815260206004820152601f6024820152600080516020612c67833981519152604482015290519081900360640190fd5b6002600055600954600a54600b54604080516370a0823160e01b815230600482015290516001600160a01b039485169490931692611b689285928792611b63926001600160701b03169185916370a0823191602480820192602092909190829003018186803b158015611b2b57600080fd5b505afa158015611b3f573d6000803e3d6000fd5b505050506040513d6020811015611b5557600080fd5b50519063ffffffff61221916565b611fd5565b600b54604080516370a0823160e01b81523060048201529051611bcf9284928792611b6392600160701b90046001600160701b0316916001600160a01b038616916370a0823191602480820192602092909190829003018186803b158015611b2b57600080fd5b5050600160005550565b6008546001600160a01b031681565b600a546001600160a01b031681565b42841015611c3c576040805162461bcd60e51b815260206004820152600d60248201526c14185a5c8e8811561412549151609a1b604482015290519081900360640190fd5b6004546001600160a01b0380891660008181526005602090815260408083208054600180820190925582517f6e71edae12b1b97f4d1f60370fef10105fa2faae0126114a169c64845d6126c98186015280840196909652958d166060860152608085018c905260a085019590955260c08085018b90528151808603909101815260e08501825280519083012061190160f01b6101008601526101028501969096526101228085019690965280518085039096018652610142840180825286519683019690962095839052610162840180825286905260ff89166101828501526101a284018890526101c28401879052519193926101e280820193601f1981019281900390910190855afa158015611d57573d6000803e3d6000fd5b5050604051601f1901519150506001600160a01b03811615801590611d8d5750886001600160a01b0316816001600160a01b0316145b611dde576040805162461bcd60e51b815260206004820152601760248201527f506169723a20494e56414c49445f5349474e4154555245000000000000000000604482015290519081900360640190fd5b611de9898989612429565b505050505050505050565b600360209081526000928352604080842090915290825290205481565b60125481565b6008546001600160a01b03163314611e68576040805162461bcd60e51b815260206004820152600f60248201526e2830b4b91d102327a92124a22222a760891b604482015290519081900360640190fd5b611e738383836124d1565b505050565b60026000541415611ebe576040805162461bcd60e51b815260206004820152601f6024820152600080516020612c67833981519152604482015290519081900360640190fd5b6002600055600954604080516370a0823160e01b81523060048201529051611fce926001600160a01b0316916370a08231916024808301926020929190829003018186803b158015611f0f57600080fd5b505afa158015611f23573d6000803e3d6000fd5b505050506040513d6020811015611f3957600080fd5b5051600a54604080516370a0823160e01b815230600482015290516001600160a01b03909216916370a0823191602480820192602092909190829003018186803b158015611f8657600080fd5b505afa158015611f9a573d6000803e3d6000fd5b505050506040513d6020811015611fb057600080fd5b5051600b546001600160701b0380821691600160701b900416612269565b6001600055565b604080518082018252601981527f7472616e7366657228616464726573732c75696e74323536290000000000000060209182015281516001600160a01b0385811660248301526044808301869052845180840390910181526064909201845291810180516001600160e01b031663a9059cbb60e01b1781529251815160009460609489169392918291908083835b602083106120825780518252601f199092019160209182019101612063565b6001836020036101000a0380198251168184511680821785525050505050509050019150506000604051808303816000865af19150503d80600081146120e4576040519150601f19603f3d011682016040523d82523d6000602084013e6120e9565b606091505b5091509150818015612117575080511580612117575080806020019051602081101561211457600080fd5b50515b612160576040805162461bcd60e51b815260206004820152601560248201527414185a5c8e881514905394d1915497d19052531151605a1b604482015290519081900360640190fd5b5050505050565b60008115806121825750508082028282828161217f57fe5b04145b611018576040805162461bcd60e51b815260206004820152601460248201527364732d6d6174682d6d756c2d6f766572666c6f7760601b604482015290519081900360640190fd5b80820182811015611018576040805162461bcd60e51b815260206004820152601460248201527364732d6d6174682d6164642d6f766572666c6f7760601b604482015290519081900360640190fd5b80820382811115611018576040805162461bcd60e51b815260206004820152601560248201527464732d6d6174682d7375622d756e646572666c6f7760581b604482015290519081900360640190fd5b6001600160701b03841180159061228757506001600160701b038311155b6122c9576040805162461bcd60e51b815260206004820152600e60248201526d506169723a204f564552464c4f5760901b604482015290519081900360640190fd5b600b5463ffffffff42811691600160e01b900481168203908116158015906122f957506001600160701b03841615155b801561230d57506001600160701b03831615155b1561237e578063ffffffff1661233b8561232686612c0c565b6001600160e01b03169063ffffffff612c1e16565b600c80546001600160e01b03929092169290920201905563ffffffff81166123668461232687612c0c565b600d80546001600160e01b0392909216929092020190555b600b80546dffffffffffffffffffffffffffff19166001600160701b03888116919091176dffffffffffffffffffffffffffff60701b1916600160701b8883168102919091176001600160e01b0316600160e01b63ffffffff871602179283905560408051848416815291909304909116602082015281517f1c411e9a96e071241c2f21f7726b17ae89e3cab4c78be50e062b03a9fffbbad1929181900390910190a1505050505050565b6001600160a01b03808416600081815260036020908152604080832094871680845294825291829020859055815185815291517f8c5be1e5ebec7d5bd14f71427d1e84f3dd0314c0f7b2291e5b200ac8c7c3b9259281900390910190a3505050565b6127108111156124cc5760405162461bcd60e51b8152600401808060200182810382526021815260200180612caa6021913960400191505060405180910390fd5b600f55565b811580156124dd575080155b156124e757611e73565b6001600160a01b0383166000908152600660205260409020546125dc5760008211612559576040805162461bcd60e51b815260206004820152601860248201527f506169723a205a45524f5f4c4f434b55505f504552494f440000000000000000604482015290519081900360640190fd5b600081116125ae576040805162461bcd60e51b815260206004820152601860248201527f506169723a205a45524f5f4c4f434b55505f414d4f554e540000000000000000604482015290519081900360640190fd5b6125be428363ffffffff6121ca16565b6001600160a01b03841660009081526006602052604090205561261f565b6001600160a01b038316600090815260066020526040902054612605908363ffffffff6121ca16565b6001600160a01b0384166000908152600660205260409020555b6001600160a01b038316600090815260076020526040902054612648908263ffffffff6121ca16565b6001600160a01b03841660009081526007602052604090205561266c8330836126b4565b604080518381526020810183905281516001600160a01b038616927f49eaf4942f1237055eb4cfa5f31c9dfe50d5b4ade01e021f7de8be2fbbde557b928290030190a2505050565b6001600160a01b0383166000908152600260205260409020546126dd908263ffffffff61221916565b6001600160a01b038085166000908152600260205260408082209390935590841681522054612712908263ffffffff6121ca16565b6001600160a01b0380841660008181526002602090815260409182902094909455805185815290519193928716927fddf252ad1be2c89b69c2b068fc378daa952ba7f163c4a11628f55a4df523b3ef92918290030190a3505050565b600080600860009054906101000a90046001600160a01b03166001600160a01b031663bdc886516040518163ffffffff1660e01b815260040160206040518083038186803b1580156127bf57600080fd5b505afa1580156127d3573d6000803e3d6000fd5b505050506040513d60208110156127e957600080fd5b5051600e5481158015945091925090612a5a578015612a555760006128236114506001600160701b0388811690881663ffffffff61216716565b9050600061283083612a6e565b905080821115612a5257600061287f612851836103e863ffffffff61216716565b612873612866886103e863ffffffff61221916565b869063ffffffff61216716565b9063ffffffff6121ca16565b6128a76103e8610edd612898878763ffffffff61221916565b6001549063ffffffff61216716565b816128ae57fe5b0490508015612a505760085460408051632ad56a9b60e11b815290516001600160a01b039092169160009183916355aad53691600480820192602092909190829003018186803b15801561290157600080fd5b505afa158015612915573d6000803e3d6000fd5b505050506040513d602081101561292b57600080fd5b5051604080516361d027b360e01b815290519192506129c1916001600160a01b038516916361d027b3916004808301926020929190829003018186803b15801561297457600080fd5b505afa158015612988573d6000803e3d6000fd5b505050506040513d602081101561299e57600080fd5b5051620f42406129b4868563ffffffff61216716565b816129bb57fe5b04612ac0565b612a4d826001600160a01b0316635aa6e6756040518163ffffffff1660e01b815260040160206040518083038186803b1580156129fd57600080fd5b505afa158015612a11573d6000803e3d6000fd5b505050506040513d6020811015612a2757600080fd5b5051620f42406129b4612a40828663ffffffff61221916565b879063ffffffff61216716565b50505b505b50505b612a66565b8015612a66576000600e555b505092915050565b60006003821115612ab1575080600160028204015b81811015612aab57809150600281828581612a9a57fe5b040181612aa357fe5b049050612a83565b50612abb565b8115612abb575060015b919050565b600154612ad3908263ffffffff6121ca16565b6001556001600160a01b038216600090815260026020526040902054612aff908263ffffffff6121ca16565b6001600160a01b03831660008181526002602090815260408083209490945583518581529351929391927fddf252ad1be2c89b69c2b068fc378daa952ba7f163c4a11628f55a4df523b3ef9281900390910190a35050565b6000818310612b665781612b68565b825b9392505050565b6001600160a01b038216600090815260026020526040902054612b98908263ffffffff61221916565b6001600160a01b038316600090815260026020526040902055600154612bc4908263ffffffff61221916565b6001556040805182815290516000916001600160a01b038516917fddf252ad1be2c89b69c2b068fc378daa952ba7f163c4a11628f55a4df523b3ef9181900360200190a35050565b6001600160701b0316600160701b0290565b60006001600160701b0382166001600160e01b03841681612c3b57fe5b04939250505056fe506169723a20494e53554646494349454e545f4c49515549444954595f4d494e5445445265656e7472616e637947756172643a207265656e7472616e742063616c6c00506169723a20494e53554646494349454e545f4c49515549444954595f4255524e4544506169723a20494e56414c49445f54524144494e475f4645455f50455243454e54a2646970667358221220e796c9a0ea0f4ddd4b28f31611414342ae5b2357c91e95da5efbe8d3bdfdba1364736f6c63430006060033454950373132446f6d61696e28737472696e67206e616d652c737472696e672076657273696f6e2c75696e7432353620636861696e49642c6164647265737320766572696679696e67436f6e7472616374295472616e7366657248656c7065723a205452414e534645525f46524f4d5f4641494c4544a264697066735822122007d0727bb64523a2ab0be02acc05a81cfa1c5efb0cf015881736060dd41b94c964736f6c63430006060033",
  "immutableReferences": {
    "17": [
      {
        "length": 32,
        "start": 1719
      },
      {
        "length": 32,
        "start": 3105
      },
      {
        "length": 32,
        "start": 4133
      },
      {
        "length": 32,
        "start": 4317
      },
      {
        "length": 32,
        "start": 4404
      },
      {
        "length": 32,
        "start": 5612
      },
      {
        "length": 32,
        "start": 5671
      }
    ],
    "20": [
      {
        "length": 32,
        "start": 2720
      },
      {
        "length": 32,
        "start": 3164
      },
      {
        "length": 32,
        "start": 4192
      },
      {
        "length": 32,
        "start": 4548
      },
      {
        "length": 32,
        "start": 4634
      }
    ],
    "23": [
      {
        "length": 32,
        "start": 2608
      },
      {
        "length": 32,
        "start": 4252
      },
      {
        "length": 32,
        "start": 4726
      },
      {
        "length": 32,
        "start": 4914
      }
    ]
  },
  "source": "pragma solidity 0.6.6;\n\nimport \"@openzeppelin/contracts/utils/ReentrancyGuard.sol\";\nimport \"./interfaces/ILinkswapFactory.sol\";\nimport \"./interfaces/ILinkswapPriceOracle.sol\";\nimport \"./libraries/SafeMathLinkswap.sol\";\nimport \"./libraries/TransferHelper.sol\";\nimport \"./LinkswapPair.sol\";\n\ncontract LinkswapFactory is ILinkswapFactory, ReentrancyGuard {\n    using SafeMathLinkswap for uint256;\n\n    address public immutable override LINK;\n    address public immutable override WETH;\n    address public immutable override YFL;\n\n    address public override governance;\n    address public override treasury;\n    address public override priceOracle;\n    uint256 public override linkListingFeeInUsd;\n    uint256 public override wethListingFeeInUsd;\n    uint256 public override yflListingFeeInUsd;\n    uint256 public override treasuryListingFeeShare = 1000000;\n    uint256 public override minListingLockupAmountInUsd;\n    uint256 public override targetListingLockupAmountInUsd;\n    uint256 public override minListingLockupPeriod;\n    uint256 public override targetListingLockupPeriod;\n    uint256 public override lockupAmountListingFeeDiscountShare;\n    uint256 public override defaultLinkTradingFeePercent = 2500; // 0.2500%\n    uint256 public override defaultNonLinkTradingFeePercent = 3000; // 0.3000%\n    uint256 public override treasuryProtocolFeeShare = 1000000; // 100%\n    uint256 public override protocolFeeFractionInverse; // protocol fee off initially\n    uint256 public override maxSlippagePercent;\n    uint256 public override maxSlippageBlocks = 1;\n\n    mapping(address => mapping(address => address)) public override getPair;\n    mapping(address => mapping(address => bool)) public override approvedPair;\n    address[] public override allPairs;\n\n    modifier onlyGovernance() {\n        require(msg.sender == governance);\n        _;\n    }\n\n    constructor(\n        address _governance,\n        address _treasury,\n        address _priceOracle,\n        uint256 _linkListingFeeInUsd,\n        uint256 _wethListingFeeInUsd,\n        uint256 _yflListingFeeInUsd,\n        uint256 _treasuryListingFeeShare,\n        uint256 _minListingLockupAmountInUsd,\n        uint256 _targetListingLockupAmountInUsd,\n        uint256 _minListingLockupPeriod,\n        uint256 _targetListingLockupPeriod,\n        uint256 _lockupAmountListingFeeDiscountShare,\n        address _linkToken,\n        address _WETH,\n        address _yflToken\n    ) public {\n        governance = _governance;\n        treasury = _treasury;\n        priceOracle = _priceOracle;\n        linkListingFeeInUsd = _linkListingFeeInUsd;\n        wethListingFeeInUsd = _wethListingFeeInUsd;\n        yflListingFeeInUsd = _yflListingFeeInUsd;\n        treasuryListingFeeShare = _treasuryListingFeeShare;\n        _setTargetListingLockupAmountInUsd(_targetListingLockupAmountInUsd);\n        _setMinListingLockupAmountInUsd(_minListingLockupAmountInUsd);\n        _setTargetListingLockupPeriod(_targetListingLockupPeriod);\n        _setMinListingLockupPeriod(_minListingLockupPeriod);\n        lockupAmountListingFeeDiscountShare = _lockupAmountListingFeeDiscountShare;\n        LINK = _linkToken;\n        WETH = _WETH;\n        YFL = _yflToken;\n    }\n\n    function allPairsLength() external view override returns (uint256) {\n        return allPairs.length;\n    }\n\n    function _validatePair(address tokenA, address tokenB) private view returns (address token0, address token1) {\n        require(tokenA != tokenB);\n        (token0, token1) = tokenA < tokenB ? (tokenA, tokenB) : (tokenB, tokenA);\n        require(token0 != address(0));\n        require(getPair[token0][token1] == address(0)); // single check is sufficient\n    }\n\n    function _createPair(address token0, address token1) private returns (address pair) {\n        {\n            bytes memory bytecode = type(LinkswapPair).creationCode;\n            bytes32 salt = keccak256(abi.encodePacked(token0, token1));\n            assembly {\n                pair := create2(0, add(bytecode, 32), mload(bytecode), salt)\n            }\n        }\n        LinkswapPair(pair).initialize(\n            token0,\n            token1,\n            token0 == address(LINK) || token1 == address(LINK)\n                ? defaultLinkTradingFeePercent\n                : defaultNonLinkTradingFeePercent\n        );\n        getPair[token0][token1] = pair;\n        getPair[token1][token0] = pair; // populate mapping in the reverse direction\n        allPairs.push(pair);\n        emit PairCreated(token0, token1, pair, allPairs.length);\n    }\n\n    function approvePairViaGovernance(address tokenA, address tokenB) external override onlyGovernance nonReentrant {\n        (address token0, address token1) = _validatePair(tokenA, tokenB);\n        approvedPair[token0][token1] = true;\n    }\n\n    function _payListingFee(\n        address listingFeeToken,\n        uint256 lockupAmountInUsd,\n        uint256 lockupPeriod\n    ) private {\n        require(listingFeeToken == LINK || listingFeeToken == WETH || listingFeeToken == YFL);\n        uint256 listingFeeTokenAmount;\n        if (listingFeeToken == LINK) {\n            listingFeeTokenAmount = ILinkswapPriceOracle(priceOracle).calculateTokenAmountFromUsdAmount(\n                LINK,\n                linkListingFeeInUsd\n            );\n        } else if (listingFeeToken == WETH) {\n            listingFeeTokenAmount = ILinkswapPriceOracle(priceOracle).calculateTokenAmountFromUsdAmount(\n                WETH,\n                wethListingFeeInUsd\n            );\n        } else if (listingFeeToken == YFL) {\n            ILinkswapPriceOracle(priceOracle).update();\n            listingFeeTokenAmount = ILinkswapPriceOracle(priceOracle).calculateTokenAmountFromUsdAmount(\n                YFL,\n                yflListingFeeInUsd\n            );\n        }\n        uint256 discount;\n        if (targetListingLockupAmountInUsd > minListingLockupAmountInUsd) {\n            discount =\n                lockupAmountListingFeeDiscountShare.mul(lockupAmountInUsd.sub(minListingLockupAmountInUsd)) /\n                (targetListingLockupAmountInUsd.sub(minListingLockupAmountInUsd));\n        }\n        if (targetListingLockupPeriod > minListingLockupPeriod) {\n            discount = discount.add(\n                (uint256(1000000).sub(lockupAmountListingFeeDiscountShare)).mul(\n                    lockupPeriod.sub(minListingLockupPeriod)\n                ) / (targetListingLockupPeriod.sub(minListingLockupPeriod))\n            );\n        }\n        uint256 discountedListingFeeTokenAmount = listingFeeTokenAmount.mul(uint256(1000000).sub(discount)) / 1000000;\n        TransferHelper.safeTransferFrom(\n            listingFeeToken,\n            msg.sender,\n            treasury,\n            discountedListingFeeTokenAmount.mul(treasuryListingFeeShare) / 1000000\n        );\n        TransferHelper.safeTransferFrom(\n            listingFeeToken,\n            msg.sender,\n            governance,\n            discountedListingFeeTokenAmount.mul(uint256(1000000).sub(treasuryListingFeeShare)) / 1000000\n        );\n    }\n\n    function createPair(\n        address newToken,\n        uint256 newTokenAmount,\n        address lockupToken, // LINK or WETH, or part of a governance-approved pair\n        uint256 lockupTokenAmount,\n        uint256 lockupPeriod,\n        address listingFeeToken // can be zero address if governance-approved pair\n    ) external override nonReentrant returns (address pair) {\n        require(msg.sender != governance);\n        require(newToken != address(0) && lockupToken != address(0));\n        (address token0, address token1) = _validatePair(newToken, lockupToken);\n        if (!approvedPair[token0][token1]) {\n            require(lockupToken == LINK || lockupToken == WETH);\n            require(lockupPeriod >= minListingLockupPeriod);\n            uint256 lockupAmountInUsd = ILinkswapPriceOracle(priceOracle).calculateUsdAmountFromTokenAmount(\n                lockupToken,\n                lockupTokenAmount\n            );\n            require(lockupAmountInUsd >= minListingLockupAmountInUsd);\n            _payListingFee(listingFeeToken, lockupAmountInUsd, lockupPeriod);\n        }\n        pair = _createPair(token0, token1);\n        if (!approvedPair[token0][token1] && lockupTokenAmount > 0 && lockupPeriod > 0) {\n            TransferHelper.safeTransferFrom(newToken, msg.sender, pair, newTokenAmount);\n            TransferHelper.safeTransferFrom(lockupToken, msg.sender, pair, lockupTokenAmount);\n            uint256 liquidity = LinkswapPair(pair).mint(msg.sender);\n            LinkswapPair(pair).listingLock(msg.sender, lockupPeriod, liquidity);\n        }\n    }\n\n    function setPriceOracle(address _priceOracle) external override onlyGovernance {\n        priceOracle = _priceOracle;\n    }\n\n    function setTreasury(address _treasury) external override onlyGovernance {\n        treasury = _treasury;\n    }\n\n    function setGovernance(address _governance) external override onlyGovernance {\n        require(_governance != address(0));\n        governance = _governance;\n    }\n\n    function setTreasuryProtocolFeeShare(uint256 _treasuryProtocolFeeShare) external override onlyGovernance {\n        require(_treasuryProtocolFeeShare <= 1000000);\n        treasuryProtocolFeeShare = _treasuryProtocolFeeShare;\n    }\n\n    function setProtocolFeeFractionInverse(uint256 _protocolFeeFractionInverse) external override onlyGovernance {\n        // max 50% of trading fee (2/1 * 1000)\n        require(_protocolFeeFractionInverse >= 2000 || _protocolFeeFractionInverse == 0);\n        protocolFeeFractionInverse = _protocolFeeFractionInverse;\n    }\n\n    function setLinkListingFeeInUsd(uint256 _linkListingFeeInUsd) external override onlyGovernance {\n        linkListingFeeInUsd = _linkListingFeeInUsd;\n    }\n\n    function setWethListingFeeInUsd(uint256 _wethListingFeeInUsd) external override onlyGovernance {\n        wethListingFeeInUsd = _wethListingFeeInUsd;\n    }\n\n    function setYflListingFeeInUsd(uint256 _yflListingFeeInUsd) external override onlyGovernance {\n        yflListingFeeInUsd = _yflListingFeeInUsd;\n    }\n\n    function setTreasuryListingFeeShare(uint256 _treasuryListingFeeShare) external override onlyGovernance {\n        require(_treasuryListingFeeShare <= 1000000);\n        treasuryListingFeeShare = _treasuryListingFeeShare;\n    }\n\n    function _setMinListingLockupAmountInUsd(uint256 _minListingLockupAmountInUsd) private {\n        require(_minListingLockupAmountInUsd <= targetListingLockupAmountInUsd);\n        if (_minListingLockupAmountInUsd > 0) {\n            // needs to be at least 1000 due to LinkswapPair MINIMUM_LIQUIDITY subtraction\n            require(_minListingLockupAmountInUsd >= 1000);\n        }\n        minListingLockupAmountInUsd = _minListingLockupAmountInUsd;\n    }\n\n    function setMinListingLockupAmountInUsd(uint256 _minListingLockupAmountInUsd) external override onlyGovernance {\n        _setMinListingLockupAmountInUsd(_minListingLockupAmountInUsd);\n    }\n\n    function _setTargetListingLockupAmountInUsd(uint256 _targetListingLockupAmountInUsd) private {\n        require(_targetListingLockupAmountInUsd >= minListingLockupAmountInUsd);\n        targetListingLockupAmountInUsd = _targetListingLockupAmountInUsd;\n    }\n\n    function setTargetListingLockupAmountInUsd(uint256 _targetListingLockupAmountInUsd)\n        external\n        override\n        onlyGovernance\n    {\n        _setTargetListingLockupAmountInUsd(_targetListingLockupAmountInUsd);\n    }\n\n    function _setMinListingLockupPeriod(uint256 _minListingLockupPeriod) private {\n        require(_minListingLockupPeriod <= targetListingLockupPeriod);\n        minListingLockupPeriod = _minListingLockupPeriod;\n    }\n\n    function setMinListingLockupPeriod(uint256 _minListingLockupPeriod) external override onlyGovernance {\n        _setMinListingLockupPeriod(_minListingLockupPeriod);\n    }\n\n    function _setTargetListingLockupPeriod(uint256 _targetListingLockupPeriod) private {\n        require(_targetListingLockupPeriod >= minListingLockupPeriod);\n        targetListingLockupPeriod = _targetListingLockupPeriod;\n    }\n\n    function setTargetListingLockupPeriod(uint256 _targetListingLockupPeriod) external override onlyGovernance {\n        _setTargetListingLockupPeriod(_targetListingLockupPeriod);\n    }\n\n    function setLockupAmountListingFeeDiscountShare(uint256 _lockupAmountListingFeeDiscountShare)\n        external\n        override\n        onlyGovernance\n    {\n        require(_lockupAmountListingFeeDiscountShare <= 1000000);\n        lockupAmountListingFeeDiscountShare = _lockupAmountListingFeeDiscountShare;\n    }\n\n    function setDefaultLinkTradingFeePercent(uint256 _defaultLinkTradingFeePercent) external override onlyGovernance {\n        // max 1%\n        require(_defaultLinkTradingFeePercent <= 10000);\n        defaultLinkTradingFeePercent = _defaultLinkTradingFeePercent;\n    }\n\n    function setDefaultNonLinkTradingFeePercent(uint256 _defaultNonLinkTradingFeePercent)\n        external\n        override\n        onlyGovernance\n    {\n        // max 1%\n        require(_defaultNonLinkTradingFeePercent <= 10000);\n        defaultNonLinkTradingFeePercent = _defaultNonLinkTradingFeePercent;\n    }\n\n    function setMaxSlippagePercent(uint256 _maxSlippagePercent) external override onlyGovernance {\n        // max 100%\n        require(_maxSlippagePercent <= 100);\n        maxSlippagePercent = _maxSlippagePercent;\n    }\n\n    function setMaxSlippageBlocks(uint256 _maxSlippageBlocks) external override onlyGovernance {\n        // min 1 block, max 7 days (15s/block)\n        require(_maxSlippageBlocks >= 1 && _maxSlippageBlocks <= 40320);\n        maxSlippageBlocks = _maxSlippageBlocks;\n    }\n}\n",
  "sourcePath": "/Users/admin/GitHub/defi/linkswap-contracts-truffle/contracts/LinkswapFactory.sol",
  "compiler": {
    "name": "solc",
    "version": "0.6.6+commit.6c089d02.Emscripten.clang"
  },
  "schemaVersion": "3.3.2",
  "updatedAt": "2020-11-21T22:58:57.072Z",
  "networkType": "ethereum",
  "devdoc": {
    "methods": {}
  },
  "userdoc": {
    "methods": {}
  }
}